:020000040000FA
:060000000A128A110C280F
:10000800FE00030EF2000A08F3000A128A112C28D7
:100018000A128A110F28F40183010A128A1153283F
:1000280083120313141094101415941194161416B3
:1000380083160313141794138712071687159F1135
:100048001F159F101F1085168C150B178B1708008E
:10005800831203138C1D3128322837281308F10026
:100068007108F4008C1174080A128A1160200A12AF
:100078008A1173088A00720E8300FE0E7E0E090034
:1000880083160313181519309900181283120313D5
:1000980098178316031307178717981608000A126C
:1000A8008A1114200A128A110A128A1144200A128B
:1000B8008A110A128A110C28F00083160313981C5F
:1000C80066286728612870088312031399000800BE
:02400E00723FFF
:00000001FF
