:020000040000FA
:060000000A128A110C280F
:10000800FE00030EF2000A08F3000A128A111428EF
:100018000A128A110F28F40183010A128A11502842
:10002800831203138C1E19281A281F281A08F10096
:100038007108F4008C1274080A128A115D200A12E1
:100048008A1173088A00720E8300FE0E7E0E090064
:100058008316031318151930990018128312031305
:10006800981783160313071787178C160B178B1708
:100078008312031318160800831203131410941024
:100088001411941194161416831603131417941349
:1000980087120716871108000A128A112C200A12E3
:1000A8008A110A128A1140200A128A110A128A1128
:0E00B8000C28F0007008831203139300080058
:02400E00723FFF
:00000001FF
